:08000000803102288731FD2F39
:100E0C0087318B27873187310F2787318731192716
:100E1C000800623051018D008F0191010230930066
:100E2C00900192010800083042019F0090309D0013
:100E3C0024309E0019309B009C010800FE304001BC
:100E4C00910091147E01B814410194019501960111
:100E5C00990197019B019C01853093009A01013007
:100E6C009E000800410113140030131801301305C3
:100E7C00031D080001309E00003013180130F200F1
:100E8C00720893040D08F1000C08F0000800F10141
:100E9C00F20100307202323003197102031808009B
:100EAC00013040018D002930890B5A2F003240014E
:100EBC008D010730F0005330890B622FF00B622F3D
:100ECC0000320130F1070030F23D4F2FF101F201F9
:100EDC00003072023230031971020318080001301D
:100EEC0040018D00C8300032890B792F40018D01F3
:100EFC000630F0003030890B812FF00B812F00323F
:100F0C000130F1070030F23D6E2F40019701960140
:100F1C0098017E01B901C401CF01FF30B800FF3048
:100F2C00C3007F30CE00FF3040019200BF309300F1
:100F3C00FF30910000308B1B0130F0008B135530CB
:100F4C007D018F00AA308F000F101730CB001030AE
:100F5C007E01A6000930A30055307D018F00AA3018
:100F6C008F000F14701CBC2F8B1708008B130800FC
:100F7C00873106278731873124278731FE3040019E
:100F8C0091009201F501F50AF301F4010130F30728
:100F9C000030F43D87313827873131307102913080
:100FAC0003197002031CDE2F013040018C00E02F6E
:100FBC0040018C0175080319EF2F27307402103093
:100FCC0003197302031CEF2F87314D278731F5016D
:100FDC00CA2F7508031DCC2F27307402103003194B
:100FEC007302031CCC2F87316C278731C82F40012B
:040FFC008731BE2F4C
:020000040001F9
:0A000E00EC3FFF3B9F3FFF3FFF3F29
:00000001FF
