:08000000803102288731FD2F39
:100E40000800080087318F27873187312B278731AA
:100E5000873135270800623051018D008F019101E3
:100E600002309300900192010800083042019F0077
:100E700090309D0024309E0019309B009C0108009A
:100E800006304501900008308F00FF308D006F3034
:100E90008E000130F00070084E01900545018E175C
:100EA0000800F101F20100307202323003197102C0
:100EB00003180800013040018D002930890B5E2F96
:100EC000003240018D010730F0005330890B662F4E
:100ED000F00B662F00320130F1070030F23D532F46
:100EE000F101F2010030720232300319710203186D
:100EF0000800013040018D00C8300032890B7D2F81
:100F000040018D010630F0003030890B852FF00B49
:100F1000852F00320130F1070030F23D722F400181
:100F20009701960198017E01B901C401CF01FF30FC
:100F3000B800FF30C3007F30CE00FF304001920088
:100F4000BF309300FF30910000308B1B0130F00068
:100F50008B1355307D018F00AA308F000F10173092
:100F6000CB0010307E01A6000930A30055307D0172
:100F70008F00AA308F000F14701CC02F8B17080031
:100F80008B1308008731222787318731402787312B
:100F9000873120278731873121278731400191010F
:100FA0009201F501F50AE22F003074026430031952
:100FB0007302031CEB2F873151278731F501013074
:100FC00040018C00F301F4010130F3070030F43DDF
:100FD0007508031DD42F7508031DE42F003074021B
:100FE000643003197302031CE42F873170278731A3
:100FF000F501F50A40018C01E22F40018731C22F33
:020000040001F9
:0A000E00EC3FFF3B9F3FFF3FFF3F29
:00000001FF
