:08000000803102288731FD2F39
:100DAC00F10071088631DB260800F0004E010F1EA1
:100DBC00DC2E700842019A000800873188278631A2
:100DCC008631EC2686318631F626080062305101D8
:100DDC008D008F0191010230930090019201080067
:100DEC00083042019F0090309D0024309E00193045
:100DFC009B009C01080041011314003013180130B2
:100E0C001305031D080001309E000030131801303B
:100E1C00F200720893040D08F1000C08F0000800B1
:100E2C00FE304001910091147E01B81441019401EF
:100E3C0095019601990197019B019C0185309300C6
:100E4C009A0101309E00203042019E0080309D00AE
:100E5C0008007430F4007408F7007308F500720889
:100E6C00F400F20A0319F30A74088400750885006B
:100E7C000008F6007608F8007808031908007808CE
:100E8C008631D6268731332FF101F2010030720200
:100E9C0032300319710203180800013040018D0033
:100EAC002930890B572F003240018D010730F0009B
:100EBC005330890B5F2FF00B5F2F00320130F1079D
:100ECC000030F23D4C2FF101F20100307202323051
:100EDC000319710203180800013040018D00C8305D
:100EEC000032890B762F40018D010630F000303036
:100EFC00890B7E2FF00B7E2F00320130F107003072
:100F0C00F23D6B2F40019701960198017E01B901CA
:100F1C00C401CF01FF30B800FF30C3007F30CE00DA
:100F2C00FF3040019200BF309300FF309100003041
:100F3C008B1B0130F0008B1355307D018F00AA30D4
:100F4C008F000F101730CB0010307E01A600093037
:100F5C00A30055307D018F00AA308F000F14701C38
:100F6C00B92F8B1708008B1308008631E3268731C5
:100F7C000C30F2008830F30087312F27873187310E
:100F8C0016278731FE30400191009201FB01FB0ACC
:100F9C00F901FA010130F9070030FA3D40018C01EA
:100FAC00873101278731700871040319E02F013054
:100FBC0040018C007B080319EF2F27307A02103088
:100FCC0003197902031CEF2F87314A278731FB0164
:100FDC00CE2F7B08031DD02F27307A021030031937
:100FEC007902031CD02F873169278731CC2F400120
:100FFC008731BB2F483465346C346C346F342034F7
:10100C0077346F3472346C3464340034683465343F
:10101C006C346C346F34203477346F3472346C34F9
:04102C0064340034F4
:020000040001F9
:0A000E00EC3FFF3B9F3FFF3FFF3F29
:00000001FF
