:08000000803102288731FD2F39
:100E42000800080087318F27873187312C278731A7
:100E5200873136270800623051018D008F019101E0
:100E620002309300900192010800083042019F0075
:100E720090309D0024309E0019309B009C01080098
:100E820006304501900008308F00FF308D006F3032
:100E92008E000130F00070084E01900545018E175A
:100EA2000800F101F20100307202323003197102BE
:100EB20003180800013040018D005330890B5F2F69
:100EC200000040018D010730F0002A30890B672FA6
:100ED200F00B672F0130F1070030F23D542FF10182
:100EE200F201003072023230031971020318080055
:100EF200013040018D007D30890B7D2F40018D0135
:100F02000630F0000030890B842FF00B842F003262
:100F120000000130F1070030F23D722F40019701CD
:100F2200960198017E01B901C401CF01FF30B800DA
:100F3200FF30C3007F30CE00FF3040019200BF304F
:100F42009300FF30910000308B1B0130F0008B13B7
:100F520055307D018F00AA308F000F101730CB0063
:100F620010307E01A6000930A30055307D018F00AC
:100F7200AA308F000F14701CC02F8B1708008B1320
:100F8200080087312327873187314127873187310D
:100F92002127873187312227873140019101920130
:100FA200F501F50AE22F003074026430031973026E
:100FB200031CEB2F873152278731F50101304001A5
:100FC2008C00F301F4010130F3070030F43D7508A1
:100FD200031DD42F7508031DE42F00307402643002
:100FE20003197302031CE42F873170278731F5013F
:0E0FF200F50A40018C01E22F40018731C22F29
:020000040001F9
:0A000E00EC3FFF3B9F3FFF3FFF3F29
:00000001FF
