:08000000803102288731FD2F39
:100B9A00F10071088531D2250800F0004E010F1EC0
:100BAA00D32D700842019A000800863188268531C3
:100BBA008531E32585318531ED2508006230510103
:100BCA008D008F019101023093009001920108007B
:100BDA00083042019F0090309D0024309E00193059
:100BEA009B009C01080041011318080001309E0077
:100BFA0013141318FE2D0D08F1000C08F00008005C
:100C0A00FE304001910091147E01B8144101940113
:100C1A0095019601990197019B019C0185309300EA
:100C2A009A0101309E00203042019E0080309D00D2
:100C3A000800F101F2010030720232300319710228
:100C4A0003180800013040018D007430890B2B2EE7
:100C5A00003240018D010730F0000830890B332E35
:100C6A00F00B332E00320130F1070030F23D202E16
:100C7A00F101F201003072023230031971020318D5
:100C8A000800013040018D002930890B4A2E0032BC
:100C9A0040018D010730F0005330890B522EF00BC2
:100CAA00522E00320130F1070030F23D3F2E780813
:100CBA0079040319832EFD01FD0AF91B6E2E0130FA
:100CCA00F835F90D890B652E0130FC007C08FD070B
:100CDA00622E79087B02031D742E78087A02031C9F
:100CEA007A2E7808FA027908FB3B0130F936F80CBB
:100CFA00890B7B2E0130FD02031D6E2E7B08F90045
:100D0A007A08F800080040019701960198017E01CF
:100D1A00B901C401CF01FF30B800FF30C3007F30F2
:100D2A00CE00FF3040019200BF309300FF309100A7
:100D3A0000308B1B0130F0008B1355307D018F0082
:100D4A00AA308F000F101730CB0010307E01A6009A
:100D5A000930A30055307D018F00AA308F000F148F
:100D6A00701CB92E8B1708008B130800F501F601C9
:100D7A00700871040319EA2EF701F70AF11BCF2E46
:100D8A000130F035F10D890BC62E0130F4007408DC
:100D9A00F707C32E0130F535F60D890BD02E7108F1
:100DAA007302031DDA2E70087202031CE12E70080A
:100DBA00F2027108F33B75140130F136F00C890B1D
:100DCA00E22E0130F702031DCF2E7608F1007508D6
:100DDA00F00008008531DA2586318631052686310C
:100DEA004001910192019101B301B401B201B20A29
:100DFA008531F825863171084001B1007008B000CC
:100E0A000A30A0008830A1003108A3003008A200EF
:100E1A00FF30A4000130A500873146278631023011
:100E2A0040013102003003193002031C1E2F0C143A
:100E3A001F2F8C010130B3070030B43D340834024F
:100E4A00031D292F330833020318342F32080319DC
:100E5A00342FB301B40186313D268631FD2E40017F
:100E6A0034083402031D3B2F330833020318FD2EC6
:100E7A003208031DFD2EB301B40186311E268631C8
:100E8A00FD2E22304001A6002608AA0040012108B2
:100E9A00A7002008A600A00A0319A10A26088400B0
:100EAA00270885000008A8002808AF002F080319A2
:100EBA00080025302F060319672F2F088531CD2505
:100ECA0087314B2F4001AB012108A7002008A6005B
:100EDA00A00A0319A10A2608840027088500000829
:100EEA00AF00003A0319FC2F643A0319802F0D3A18
:100EFA000319802F4B2F2A0886008701403FAD0037
:100F0A00413FAE000230A6002608AA07AE1F962F60
:100F1A000330A6002608AB04AD09AE09AD0A0319D1
:100F2A00AE0AAF01AF0A05302F060319BB2F2F08EF
:100F3A00A600A701A635A70D003026078400883031
:100F4A00273D8500003FA800013FA90029082E027D
:100F5A00031DB12F28082D02031CBB2F0130A60048
:100F6A002608AF0705302F06031D9C2F2B080339CF
:100F7A000319C32F2D308531CD25873140012F0824
:100F8A00A6002608AC00FF304001A6002608AC07E0
:100F9A002C0A03194B2F0A30F8000030F9002C08EC
:100FAA00A600A701A635A70D0030260784008830C1
:100FBA00273D8500003FF000013FF1002E08F300B5
:100FCA002D08F2008631BB2687317108FB007008B4
:100FDA00FA0086315C2687317808303E4001A80045
:100FEA002808AF002F088531CD258731C82F080082
:100FFA0040018631EF2E013400340A34003464345F
:10100A000034E8340334103427344134443443344C
:10101A00203473346134793473343A3420342534C7
:10102A006434203463346F346D3470346134723410
:10103A0065346434203474346F3420342534643491
:06104A000A340D340034ED
:020000040001F9
:0A000E00EC3FFF3B9F3FFF3FFF3F29
:00000001FF
