:08000000803102288731FD2F39
:100DF000F10071088631FD260800F0004E010F1E3B
:100E0000FE2E700842019A0008008731CA278731F8
:100E100087310E278731873118270800623051014A
:100E20008D008F0191010230930090019201080022
:100E3000083042019F0090309D0024309E00193000
:100E40009B009C0108008731052787318731A8273F
:100E500087310030F2008830F30087313127873145
:100E6000292F7430F4007408F7007308F500720835
:100E7000F400F20A0319F30A740884007508850067
:100E80000008F6007608F8007808031908007808CA
:100E90008631F8268731352FF101F20100307202D8
:100EA00032300319710203180800013040018D002F
:100EB0005330890B592F000040018D010730F0009D
:100EC0002A30890B612FF00B612F0130F1070030C0
:100ED000F23D4E2FF101F20100307202323003195F
:100EE000710203180800013040018D007D30890B2C
:100EF000772F40018D010630F0000030890B7E2FE6
:100F0000F00B7E2F003200000130F1070030F23D7F
:100F10006C2FF101F20100307202323003197102BC
:100F200003180800013040018D00A630890B962F70
:100F3000003240018D010630F000D730890B9E2F22
:100F4000F00B9E2F00000130F1070030F23D8B2F97
:100F50004001920187316A2787310330F4008A30DB
:100F6000F3005630890BB22FF30BB22FF40BB22FD4
:100F70008731892787310330F4008A30F3005630F7
:100F8000890BC02FF30BC02FF40BC02F87314C27D8
:100F90008731AA2F40019701960198017E01B9017E
:100FA000C401CF01FF30B800FF30C3007F30CE0056
:100FB000FF3040019200BF309300FF3091000030BD
:100FC0008B1B0130F0008B1355307D018F00AA3050
:100FD0008F000F101730CB0010307E01A6000930B3
:100FE000A30055307D018F00AA308F000F14701CB4
:100FF000FB2F8B1708008B13080040018731232F2C
:10100000483465346C346C346F3420344C3461347F
:0E10100062342034313420340A340D3400347C
:020000040001F9
:0A000E00EC3FFF3B9F3FFF3FFF3F29
:00000001FF
