:040000008031112812
:100008007E14803140017F08F0000130F60700308F
:10001800F73D7008FF007E10090080311328F601B3
:10002800F7017E1040018031192881310A21803181
:100038008031DB20803181311A21803181311821D2
:1000480080318031C7208031F501F50A0130F10097
:100058000030F200813119218031F40080307402BF
:10006800031C3A28013040018C003C2840018C01D7
:10007800750803194A28813101218031003A031992
:100088004A288031A9208031F5012A287508031DE6
:100098002A28813101218031003A03192A28803128
:1000A8008A208031282840019701960198017E0115
:1000B800B901C401CF01FF30B800FF30C3007F3061
:1000C800CE00FF3040019200BF309300FF30910016
:1000D80000308B1B0130F1008B1355307D018F00F0
:1000E800AA308F000F101730CB0010307E01A60009
:1000F8000930A30055307D018F00AA308F000F14FE
:10010800711C88288B1708008B130800F201F30173
:1001180000307302323003197202031808000130EC
:1001280040018D007D30890B972840018D010630F4
:10013800F1000030890B9E28F10B9E280032000048
:100148000130F2070030F33D8C28F201F301003052
:10015800730232300319720203180800013040019B
:100168008D005330890BB628000040018D010730FF
:10017800F1002A30890BBE28F10BBE280130F207A6
:100188000030F33DAB28CD280130F1007108400163
:100198008C06813113218031813101218031003A6F
:1001A800031DC8285330890BD7280000D0280630F3
:1001B8004501900008308F00FF308D006F308E00B1
:1001C8000130F10071084E01900545018E170800B5
:1001D800083042019F0090309D0024309E00193065
:1001E8009B009C010800623051018D008F01910134
:1001F8000230930090019201080045010C080D0699
:10020800031D0829013008000030080080315720FC
:1002180081318031F72081318031EC20080045019F
:0E0228008C018E018E170800080008000800E7
:020000040001F9
:0A000E00EC3FFF3B9F3FFF3FFF3F29
:00000001FF
