:08000000803102288731FD2F39
:100E00008731842787318731092787318731132735
:100E10000800623051018D008F0191010230930072
:100E2000900192010800083042019F0090309D001F
:100E300024309E0019309B009C01080001304101C4
:100E40009E0013141318222F0D08F3000C08F20053
:100E50007308F1007208F0000800FE3040019100B4
:100E600091147E01B81441019401950196019901F4
:100E700097019B019C01843093009A0101309E00F0
:100E8000203042019E0080309D000800F101F201F7
:100E90000030720232300319710203180800013069
:100EA00040018D002930890B532F003240018D0104
:100EB0000730F0005330890B5B2FF00B5B2F0032B3
:100EC0000130F1070030F23D482FF101F20100300E
:100ED0007202323003197102031808000130400118
:100EE0008D00C8300032890B722F40018D01063011
:100EF000F0003030890B7A2FF00B7A2F003201305E
:100F0000F1070030F23D672F4001970196019801EB
:100F10007E01B901C401CF01FF30B800FF30C3002A
:100F20007F30CE00FF3040019200BF309300FF3091
:100F3000910000308B1B0130F0008B1355307D0188
:100F40008F00AA308F000F101730CB0010307E01B9
:100F5000A6000930A30055307D018F00AA308F0014
:100F60000F14701CB52F8B1708008B1308008731E6
:100F70000027873187312D27873140019101920168
:100F80009101F601F701F801F80A87311E27873130
:100F90007108F5007008F4000330750291300319F0
:100FA0007402031CD62F40010C14D82F40018C0171
:100FB0000130F6070030F73D13307702893003190E
:100FC0007602031CED2F78080319ED2FF601F701C7
:100FD000873146278731F801C52F133077028930D2
:100FE00003197602031CC52F7808031DC52FF601CF
:100FF000F701873165278731C32F40018731B72F2C
:020000040001F9
:0A000E00EC3FFF3B9F3FFF3FFF3F29
:00000001FF
