:08000000803102288731FD2F39
:100DDE00080008008731CA2786318631FA26863107
:100DEE00873104270800623051018D008F01910177
:100DFE0002309300900192010800083042019F00DA
:100E0E0090309D0024309E0019309B009C010800FC
:100E1E0041019401950196019901420196019701B4
:100E2E0041019B019C0109309300080006304501E9
:100E3E0090008F019101FF308D000E080130F000FF
:100E4E0070084E01900545018E1708004001920171
:100E5E008731672787314130F300EE30890B352F0C
:100E6E00F30B352F00328731862787314130F3005F
:100E7E00EE30890B402FF30B402F0032873149277C
:100E8E0087312F2FF101F201003072023230031937
:100E9E00710203180800013040018D005330890B98
:100EAE00562F000040018D010730F0002A30890BCB
:100EBE005E2FF00B5E2F0130F1070030F23D4B2F0D
:100ECE00F101F2010030720232300319710203187F
:100EDE000800013040018D007D30890B742F4001D8
:100EEE008D010630F0000030890B7B2FF00B7B2F2D
:100EFE00003200000130F1070030F23D692FF101A0
:100F0E00F201003072023230031971020318080028
:100F1E00013040018D00A630890B932F0032400125
:100F2E008D010630F000D730890B9B2FF00B9B2FD5
:100F3E0000000130F1070030F23D882F8631F12696
:100F4E00873187312D27873187311D2787318731AB
:100F5E000F2787318631F0268731C72F01304001A8
:100F6E008C000130F0000030F1008631EF26873121
:100F7E00F400803074020318B52F40018C01B82F95
:100F8E00F501F50AB82F40019701960198017E01EF
:100F9E00B901C401CF01FF30B800FF30C3007F306C
:100FAE00CE00FF3040019200BF309300FF30910021
:100FBE0000308B1B0130F0008B1355307D018F00FC
:100FCE00AA308F000F101730CB0010307E01A60014
:100FDE000930A30055307D018F00AA308F000F1409
:100FEE00701CFB2F8B1708008B13080040018731F4
:020FFE00A52F1D
:020000040001F9
:0A000E00EC3FFF3B9F3FFF3FFF3F29
:00000001FF
