:08000000803102288731FD2F39
:100DDE0008008731CA2786318631F9268631873158
:100DEE0003270800623051018D008F0191010230FE
:100DFE009300900192010800083042019F0090304C
:100E0E009D0024309E0019309B009C010800063086
:100E1E00450190008F019101FF308D000E080130C9
:100E2E00F00070084E01900545018E170800FF3046
:100E3E004001910011157E01381541019401950173
:100E4E009601990197019B019C01093093009A012B
:100E5E0008004001920187316A2787314130F30043
:100E6E00EE30890B382FF30B382F0032873189275C
:100E7E0087314130F300EE30890B432FF30B432FB4
:100E8E00003287314C278731322FF101F2010030C9
:100E9E00720232300319710203180800013040014A
:100EAE008D005330890B592F000040018D01073002
:100EBE00F0002A30890B612FF00B612F0130F10702
:100ECE000030F23D4E2FF101F2010030720232304D
:100EDE000319710203180800013040018D007D30A6
:100EEE00890B772F40018D010630F0000030890B01
:100EFE007E2FF00B7E2F003200000130F107003004
:100F0E00F23D6C2FF101F201003072023230031902
:100F1E00710203180800013040018D00A630890BC4
:100F2E00962F003240018D010630F000D730890B2C
:100F3E009E2FF00B9E2F00000130F1070030F23D86
:100F4E008B2F8631F02687318731302787318731D5
:100F5E000E27873187311E278731C72F0130400179
:100F6E008C000130F0000030F1008631EF26873121
:100F7E00F400803074020318B52F40018C01B82F95
:100F8E00F501F50AB82F40019701960198017E01EF
:100F9E00B901C401CF01FF30B800FF30C3007F306C
:100FAE00CE00FF3040019200BF309300FF30910021
:100FBE0000308B1B0130F0008B1355307D018F00FC
:100FCE00AA308F000F101730CB0010307E01A60014
:100FDE000930A30055307D018F00AA308F000F1409
:100FEE00701CFB2F8B1708008B13080040018731F4
:020FFE00A82F1A
:020000040001F9
:0A000E00EC3FFF3B9F3FFF3FFF3F29
:00000001FF
