:08000000803102288731FD2F39
:100EF200F100710887317E270800F0004E010F1EB5
:100F02007F2F700842019A0008008731CA27873173
:100F120087318F2787318731992708006230510145
:100F22008D008F019101023093009001920108001F
:100F3200083042019F0090309D0024309E001930FD
:100F42009B009C0108008731862787310030F20020
:100F52008830F3008731AF278731A72F7430F40030
:100F62007408F7007308F5007208F400F20A031916
:100F7200F30A74088400750885000008F6007608F4
:100F8200F800780803190800780887317927873133
:100F9200B32F40019701960198017E01B901C40166
:100FA200CF01FF30B800FF30C3007F30CE00FF30EA
:100FB20040019200BF309300FF30910000308B1B44
:100FC2000130F0008B1355307D018F00AA308F0065
:100FD2000F101730CB0010307E01A6000930A3009D
:100FE20055307D018F00AA308F000F14701CFB2F2B
:100FF2008B1708008B13080040018731A42F483457
:1010020065346C346C346F3420344C346134623463
:0C1012002034313420340A340D34003412
:020000040001F9
:0A000E00EC3FFF3B9F3FFF3FFF3F29
:00000001FF
